:100000000C9431000C9451030C947A030C94A303C8
:100010000C944E000C944E000C94EA050C94980538
:100020000C94C1050C946F050C94D8040C94AF0487
:100030000C944B040C9418060C944E000C9441063E
:100040000C944E000C944E000C944E000C944E00F8
:100050000C944E002304250429042B042E043004A0
:10006000330411241FBECFE5D8E0DEBFCDBF10E0C2
:10007000A0E6B0E0E4EEFCE002C005900D92AE3BDD
:10008000B107D9F720E0AEEBB0E001C01D92A63D6C
:10009000B207E1F70E946D010C9470060C94000009
:1000A000CF93C82F60E081E00E94BC0260E082E054
:1000B0000E94BC02C4FB662760F983E10E94BC0277
:1000C000C5FB662760F984E10E94BC02C6FB662777
:1000D00060F985E10E94BC026C2F661F6627661FCF
:1000E00086E10E94BC0261E082E10E94BC028FECCA
:1000F00097E00197F1F700C0000060E082E10E9404
:10010000BC028FEC97E00197F1F700C000006C2F64
:10011000617083E10E94BC02C1FB662760F984E143
:100120000E94BC02C2FB662760F985E10E94BC0206
:10013000C3FB662760F986E10E94BC0261E082E1B0
:100140000E94BC028FEC97E00197F1F700C000001D
:1001500060E082E10E94BC028FEC97E00197F1F72A
:1001600000C00000CF910895CF93C82F61E081E0D7
:100170000E94BC0260E082E00E94BC02C4FB6627D1
:1001800060F983E10E94BC02C5FB662760F984E147
:100190000E94BC02C6FB662760F985E10E94BC0292
:1001A0006C2F661F6627661F86E10E94BC0261E015
:1001B00082E10E94BC028FEC97E00197F1F700C04A
:1001C000000060E082E10E94BC028FEC97E00197A2
:1001D000F1F700C000006C2F617083E10E94BC0247
:1001E000C1FB662760F984E10E94BC02C2FB66275E
:1001F00060F985E10E94BC02C3FB662760F986E1D5
:100200000E94BC0261E082E10E94BC028FEC97E098
:100210000197F1F700C0000060E082E10E94BC029B
:100220008FEC97E00197F1F700C00000CF9108959F
:100230002FE788E391E0215080409040E1F700C033
:10024000000082E00E9450008FEC97E00197F1F7E8
:1002500000C0000088E20E9450008FEC97E00197F8
:10026000F1F700C000008CE00E9450008FEC97E096
:100270000197F1F700C0000081E00E9450008FE973
:100280009FE00197F1F700C0000086E00E94500057
:100290008FEC97E00197F1F700C0000008958111FD
:1002A00002C080E803C0813021F480EC860F0C94FA
:1002B000500008950F931F93CF938C01C0E0F80175
:1002C000EC0FF11D8081882321F00E94B400CF5FE4
:1002D000F6CFCF911F910F91089578940E943E031D
:1002E0000E9418010E94130666E080E00E94D2017D
:1002F00042E062E083E00E94740420E040E062E0BB
:1003000080E00E94010560E080E00E944F0180E6ED
:1003100090E00E945A012FEF84E39CE0215080403E
:100320009040E1F700C000000E94CC0361E484E04B
:100330000E94F303833039F460E080E00E944F01B3
:100340008DE690E019C0811106C060E00E944F0167
:1003500086E790E011C0813039F460E080E00E94CF
:100360004F018FE790E008C0823041F460E080E008
:100370000E944F018EE890E00E945A0140E060E048
:1003800080E00E941804C1E68C2F0E944604CF5FD3
:100390002FEF89E698E1215080409040E1F700C0BE
:1003A0000000F2CF813041F028F0823039F43E9ADB
:1003B0003F9A04C03E9A01C03E983F983D9886B14E
:1003C000887F86B986B16770682B66B90895982FC3
:1003D0009695969596958770613009F441C020F006
:1003E000623009F479C00895913099F028F0923084
:1003F000E9F0933041F108954AB321E030E0B901CA
:1004000002C0660F771F8A95E2F7CB01809584239F
:100410003AC047B321E030E0B90102C0660F771F50
:100420008A95E2F7CB01809584233AC044B321E05A
:1004300030E0B90102C0660F771F8A95E2F7CB0161
:10044000809584233AC041B321E030E0B90102C075
:10045000660F771F8A95E2F7CB01809584233AC017
:10046000913099F028F09230E9F0933041F10895FD
:100470004AB321E030E0B90102C0660F771F8A95C8
:10048000E2F7CB01842B8ABB089547B321E030E02B
:10049000B90102C0660F771F8A95E2F7CB01842B62
:1004A00087BB089544B321E030E0B90102C0660F74
:1004B000771F8A95E2F7CB01842B84BB089541B363
:1004C00021E030E0B90102C0660F771F8A95E2F79C
:1004D000CB01842B81BB08959130C1F028F092307C
:1004E00039F19330B9F108954AB321E030E0B90110
:1004F00002C0660F771F8A95E2F7CB01962F909581
:1005000094239ABB9BB3892B8BBB089547B321E0FF
:1005100030E0B90102C0660F771F8A95E2F7CB0180
:10052000962F9095942397BB98B3892B88BB0895F9
:1005300044B321E030E0B90102C0660F771F8A950D
:10054000E2F7CB01962F9095942394BB95B3892B1A
:1005500085BB089541B321E030E0B90102C0660FC8
:10056000771F8A95E2F7CB01962F9095942391BB44
:1005700092B3892B82BB0895982F96959695969560
:1005800087706623D9F1613009F077C0913091F01E
:1005900028F09230D9F0933029F108954BB321E03F
:1005A00030E0B90102C0660F771F8A95E2F7CB01F0
:1005B000842B38C048B321E030E0B90102C0660F97
:1005C000771F8A95E2F7CB01842B3AC045B321E02F
:1005D00030E0B90102C0660F771F8A95E2F7CB01C0
:1005E000842B3CC042B321E030E0B90102C0660F69
:1005F000771F8A95E2F7CB01842B3EC09130A1F0A2
:1006000028F09230F9F0933059F108954BB321E07E
:1006100030E0B90102C0660F771F8A95E2F7CB017F
:10062000809584238BBB089548B321E030E0B90165
:1006300002C0660F771F8A95E2F7CB01809584236D
:1006400088BB089545B321E030E0B90102C0660FD0
:10065000771F8A95E2F7CB018095842385BB0895A7
:1006600042B321E030E0B90102C0660F771F8A95DE
:10067000E2F7CB018095842382BB08950F931F93EB
:10068000CF930AE910E0C0E0F80161918F018C2F4F
:100690000E94E701CF5FC032B9F7CF911F910F9150
:1006A00008951F920F920FB60F9211242F933F932C
:1006B0004F935F936F937F938F939F93AF93BF936A
:1006C000EF93FF93E091C200F091C300309709F0DF
:1006D0000995FF91EF91BF91AF919F918F917F917C
:1006E0006F915F914F913F912F910F900FBE0F909F
:1006F0001F9018951F920F920FB60F9211242F93EF
:100700003F934F935F936F937F938F939F93AF9399
:10071000BF93EF93FF93E091C000F091C100309739
:1007200009F00995FF91EF91BF91AF919F918F9142
:100730007F916F915F914F913F912F910F900FBEDD
:100740000F901F9018951F920F920FB60F921124C1
:100750002F933F934F935F936F937F938F939F93C9
:10076000AF93BF93EF93FF93E091BE00F091BF0072
:10077000309709F00995FF91EF91BF91AF919F914B
:100780008F917F916F915F914F913F912F910F903A
:100790000FBE0F901F90189580E280B982E082B959
:1007A00086B78E7F86BF86B7806486BF0898099813
:1007B000089584EA86BF06B607FEFDCF60E081E0BB
:1007C0000E944F018AEB90E00C945A0184E986BFA5
:1007D00006B604FCFDCF089583B984E886BF06B64B
:1007E00007FEFDCF0895CF93DF93D82FC62F0E9429
:1007F000D90381B1887F883099F48D2F880F0E94AA
:10080000EC0381B1887F883169F48C2F0E94EC035E
:1008100081B1887F883241F40E94E60383E005C0FD
:1008200080E003C081E001C082E0DF91CF910895B4
:10083000962F6C9A50E047305105C0F4FA01E65DFE
:10084000FF4F0C946A06689801C0689A699870987E
:100850000DC0689801C0689A699AF9CF689801C07C
:10086000689A699802C06898699A709A882321F0FA
:10087000813019F46B9A01C06B98992321F0913063
:1008800019F46A9A01C06A986E9A08958FB9779B95
:10089000FECF8FB108951F920F920FB60F921124C1
:1008A0002F933F934F935F936F937F938F939F9378
:1008B000AF93BF93EF93FF93E091C400F091C50015
:1008C000309709F00995FF91EF91BF91AF919F91FA
:1008D0008F917F916F915F914F913F912F910F90E9
:1008E0000FBE0F901F901895813059F038F082306C
:1008F00071F0833091F483B780640BC083B78F7B32
:1009000002C083B7806483BF83B7877F05C083B786
:100910008F7B83BF83B7886083BF83B7887F83BFA4
:1009200083B76770682B63BF413049F028F04230CD
:1009300061F0433069F0089583B78F7E02C083B7BA
:10094000806183BF83B78F7D08C083B78F7E02C06D
:1009500083B7806183BF83B7806283BF08951F928E
:100960000F920FB60F9211242F933F934F935F93E3
:100970006F937F938F939F93AF93BF93EF93FF9367
:10098000E091D000F091D100309709F00995FF91E6
:10099000EF91BF91AF919F918F917F916F915F91F7
:1009A0004F913F912F910F900FBE0F901F90189570
:1009B0001F920F920FB60F9211242F933F934F93D4
:1009C0005F936F937F938F939F93AF93BF93EF93B7
:1009D000FF93E091CE00F091CF00309709F0099598
:1009E000FF91EF91BF91AF919F918F917F916F9107
:1009F0005F914F913F912F910F900FBE0F901F90DD
:100A000018958230D9F050F4882379F0813071F54F
:100A10008FB58E7F8FBD8FB58D7F21C08330D1F094
:100A2000843021F58FB5816017C08FB58E7F8FBD63
:100A30008FB58D7F8FBD8EB5877F08C08FB58E7FB8
:100A40008FBD8FB58D7F8FBD8EB588608EBD8EB505
:100A50008F7E0BC08FB58E7F8FBD8FB582608FBDAF
:100A60008EB588608EBD8EB580618EBD413059F0E7
:100A700038F0423071F0433091F48FB580640BC090
:100A80008FB58F7B02C08FB580648FBD8FB58F7798
:100A900005C08FB58F7B8FBD8FB580688FBD21302E
:100AA00059F038F0223071F0233091F48FB5806125
:100AB0000BC08FB58F7E02C08FB580618FBD8FB5A3
:100AC0008F7D05C08FB58F7E8FBD8FB580628FBD46
:100AD0008EB5887F8EBD8EB5682B6EBD08951F9232
:100AE0000F920FB60F9211242F933F934F935F9362
:100AF0006F937F938F939F93AF93BF93EF93FF93E6
:100B0000E091CC00F091CD00309709F00995FF916C
:100B1000EF91BF91AF919F918F917F916F915F9175
:100B20004F913F912F910F900FBE0F901F901895EE
:100B30001F920F920FB60F9211242F933F934F9352
:100B40005F936F937F938F939F93AF93BF93EF9335
:100B5000FF93E091CA00F091CB00309709F009951E
:100B6000FF91EF91BF91AF919F918F917F916F9185
:100B70005F914F913F912F910F900FBE0F901F905B
:100B800018951F920F920FB60F9211242F933F9337
:100B90004F935F936F937F938F939F93AF93BF9385
:100BA000EF93FF93E091C800F091C900309709F0EE
:100BB0000995FF91EF91BF91AF919F918F917F9197
:100BC0006F915F914F913F912F910F900FBE0F90BA
:100BD0001F9018951F920F920FB60F9211242F930A
:100BE0003F934F935F936F937F938F939F93AF93B5
:100BF000BF93EF93FF93E091C600F091C700309749
:100C000009F00995FF91EF91BF91AF919F918F915D
:100C10007F916F915F914F913F912F910F900FBEF8
:100C20000F901F90189583E389B9539A549A0895A9
:100C30001F920F920FB60F9211242F933F934F9351
:100C40005F936F937F938F939F93AF93BF93EF9334
:100C5000FF93E091D400F091D500309709F0099509
:100C6000FF91EF91BF91AF919F918F917F916F9184
:100C70005F914F913F912F910F900FBE0F901F905A
:100C800018951F920F920FB60F9211242F933F9336
:100C90004F935F936F937F938F939F93AF93BF9384
:100CA000EF93FF93E091D200F091D300309709F0D9
:100CB0000995FF91EF91BF91AF919F918F917F9196
:100CC0006F915F914F913F912F910F900FBE0F90B9
:100CD0001F901895EE0FFF1F0590F491E02D0994D9
:040CE000F894FFCFB6
:100CE40073797374656D2072656164790049324368
:100CF40020646F6E65004275732062757379006EAF
:100D04006F20616464726573732061636B006E6F3E
:100D140020646174612061636B00000101020101C0
:100D240001010202020101010001010101010101AD
:0E0D34000101010101010101000173740000C1
:00000001FF
